{
  "contractName": "zkID",
  "abi": [
    {
      "inputs": [],
      "stateMutability": "nonpayable",
      "type": "constructor"
    },
    {
      "anonymous": false,
      "inputs": [
        {
          "indexed": false,
          "internalType": "string",
          "name": "",
          "type": "string"
        }
      ],
      "name": "ZkID",
      "type": "event"
    },
    {
      "inputs": [
        {
          "internalType": "address",
          "name": "",
          "type": "address"
        }
      ],
      "name": "proofs",
      "outputs": [
        {
          "internalType": "string",
          "name": "vector",
          "type": "string"
        },
        {
          "internalType": "address",
          "name": "verifier",
          "type": "address"
        },
        {
          "internalType": "uint256",
          "name": "timestamp",
          "type": "uint256"
        }
      ],
      "stateMutability": "view",
      "type": "function",
      "constant": true
    },
    {
      "inputs": [
        {
          "internalType": "string",
          "name": "_proof",
          "type": "string"
        },
        {
          "internalType": "address",
          "name": "_verifier",
          "type": "address"
        }
      ],
      "name": "addProof",
      "outputs": [
        {
          "components": [
            {
              "internalType": "string",
              "name": "vector",
              "type": "string"
            },
            {
              "internalType": "address",
              "name": "verifier",
              "type": "address"
            },
            {
              "internalType": "uint256",
              "name": "timestamp",
              "type": "uint256"
            }
          ],
          "internalType": "struct zkID.Proof",
          "name": "proof",
          "type": "tuple"
        }
      ],
      "stateMutability": "payable",
      "type": "function",
      "payable": true
    },
    {
      "inputs": [
        {
          "internalType": "address",
          "name": "_user",
          "type": "address"
        }
      ],
      "name": "getProof",
      "outputs": [
        {
          "components": [
            {
              "internalType": "string",
              "name": "vector",
              "type": "string"
            },
            {
              "internalType": "address",
              "name": "verifier",
              "type": "address"
            },
            {
              "internalType": "uint256",
              "name": "timestamp",
              "type": "uint256"
            }
          ],
          "internalType": "struct zkID.Proof",
          "name": "proof",
          "type": "tuple"
        }
      ],
      "stateMutability": "view",
      "type": "function",
      "constant": true
    }
  ],
  "bytecode": "0x608060405234801561001057600080fd5b507f777633d14762e892a21f82004da24e8f1fb229f4f4276e39319e570f8187485160405161003e906100a8565b60405180910390a16100c8565b600082825260208201905092915050565b7f436f6e7472616374206465706c6f796564000000000000000000000000000000600082015250565b600061009260118361004b565b915061009d8261005c565b602082019050919050565b600060208201905081810360008301526100c181610085565b9050919050565b610b69806100d76000396000f3fe6080604052600436106100345760003560e01c80633eea79d114610039578063417aa13414610076578063a795f9e2146100a6575b600080fd5b34801561004557600080fd5b50610060600480360381019061005b91906104be565b6100e5565b60405161006d91906105fc565b60405180910390f35b610090600480360381019061008b9190610753565b610235565b60405161009d91906105fc565b60405180910390f35b3480156100b257600080fd5b506100cd60048036038101906100c891906104be565b610343565b6040516100dc93929190610817565b60405180910390f35b6100ed610415565b60008060008473ffffffffffffffffffffffffffffffffffffffff1673ffffffffffffffffffffffffffffffffffffffff16815260200190815260200160002060405180606001604052908160008201805461014890610884565b80601f016020809104026020016040519081016040528092919081815260200182805461017490610884565b80156101c15780601f10610196576101008083540402835291602001916101c1565b820191906000526020600020905b8154815290600101906020018083116101a457829003601f168201915b505050505081526020016001820160009054906101000a900473ffffffffffffffffffffffffffffffffffffffff1673ffffffffffffffffffffffffffffffffffffffff1673ffffffffffffffffffffffffffffffffffffffff168152602001600282015481525050905080915050919050565b61023d610415565b610245610415565b83816000018190525082816020019073ffffffffffffffffffffffffffffffffffffffff16908173ffffffffffffffffffffffffffffffffffffffff168152505042816040018181525050806000803373ffffffffffffffffffffffffffffffffffffffff1673ffffffffffffffffffffffffffffffffffffffff16815260200190815260200160002060008201518160000190816102e49190610a61565b5060208201518160010160006101000a81548173ffffffffffffffffffffffffffffffffffffffff021916908373ffffffffffffffffffffffffffffffffffffffff160217905550604082015181600201559050508091505092915050565b600060205280600052604060002060009150905080600001805461036690610884565b80601f016020809104026020016040519081016040528092919081815260200182805461039290610884565b80156103df5780601f106103b4576101008083540402835291602001916103df565b820191906000526020600020905b8154815290600101906020018083116103c257829003601f168201915b5050505050908060010160009054906101000a900473ffffffffffffffffffffffffffffffffffffffff16908060020154905083565b604051806060016040528060608152602001600073ffffffffffffffffffffffffffffffffffffffff168152602001600081525090565b6000604051905090565b600080fd5b600080fd5b600073ffffffffffffffffffffffffffffffffffffffff82169050919050565b600061048b82610460565b9050919050565b61049b81610480565b81146104a657600080fd5b50565b6000813590506104b881610492565b92915050565b6000602082840312156104d4576104d3610456565b5b60006104e2848285016104a9565b91505092915050565b600081519050919050565b600082825260208201905092915050565b60005b8381101561052557808201518184015260208101905061050a565b83811115610534576000848401525b50505050565b6000601f19601f8301169050919050565b6000610556826104eb565b61056081856104f6565b9350610570818560208601610507565b6105798161053a565b840191505092915050565b61058d81610480565b82525050565b6000819050919050565b6105a681610593565b82525050565b600060608301600083015184820360008601526105c9828261054b565b91505060208301516105de6020860182610584565b5060408301516105f1604086018261059d565b508091505092915050565b6000602082019050818103600083015261061681846105ac565b905092915050565b600080fd5b600080fd5b7f4e487b7100000000000000000000000000000000000000000000000000000000600052604160045260246000fd5b6106608261053a565b810181811067ffffffffffffffff8211171561067f5761067e610628565b5b80604052505050565b600061069261044c565b905061069e8282610657565b919050565b600067ffffffffffffffff8211156106be576106bd610628565b5b6106c78261053a565b9050602081019050919050565b82818337600083830152505050565b60006106f66106f1846106a3565b610688565b90508281526020810184848401111561071257610711610623565b5b61071d8482856106d4565b509392505050565b600082601f83011261073a5761073961061e565b5b813561074a8482602086016106e3565b91505092915050565b6000806040838503121561076a57610769610456565b5b600083013567ffffffffffffffff8111156107885761078761045b565b5b61079485828601610725565b92505060206107a5858286016104a9565b9150509250929050565b600082825260208201905092915050565b60006107cb826104eb565b6107d581856107af565b93506107e5818560208601610507565b6107ee8161053a565b840191505092915050565b61080281610480565b82525050565b61081181610593565b82525050565b6000606082019050818103600083015261083181866107c0565b905061084060208301856107f9565b61084d6040830184610808565b949350505050565b7f4e487b7100000000000000000000000000000000000000000000000000000000600052602260045260246000fd5b6000600282049050600182168061089c57607f821691505b6020821081036108af576108ae610855565b5b50919050565b60008190508160005260206000209050919050565b60006020601f8301049050919050565b600082821b905092915050565b6000600883026109177fffffffffffffffffffffffffffffffffffffffffffffffffffffffffffffffff826108da565b61092186836108da565b95508019841693508086168417925050509392505050565b6000819050919050565b600061095e61095961095484610593565b610939565b610593565b9050919050565b6000819050919050565b61097883610943565b61098c61098482610965565b8484546108e7565b825550505050565b600090565b6109a1610994565b6109ac81848461096f565b505050565b5b818110156109d0576109c5600082610999565b6001810190506109b2565b5050565b601f821115610a15576109e6816108b5565b6109ef846108ca565b810160208510156109fe578190505b610a12610a0a856108ca565b8301826109b1565b50505b505050565b600082821c905092915050565b6000610a3860001984600802610a1a565b1980831691505092915050565b6000610a518383610a27565b9150826002028217905092915050565b610a6a826104eb565b67ffffffffffffffff811115610a8357610a82610628565b5b610a8d8254610884565b610a988282856109d4565b600060209050601f831160018114610acb5760008415610ab9578287015190505b610ac38582610a45565b865550610b2b565b601f198416610ad9866108b5565b60005b82811015610b0157848901518255600182019150602085019450602081019050610adc565b86831015610b1e5784890151610b1a601f891682610a27565b8355505b6001600288020188555050505b50505050505056fea2646970667358221220e0b7056472471a365a48763e0ac1a446a56c577f5a5a476c62a8137110df8f4d64736f6c634300080f0033",
  "immutableReferences": {},
  "source": "// SPDX-License-Identifier: MIT\npragma solidity >=0.4.22 <0.9.0;\n\ncontract zkID {\n\n  struct Proof {\n    string vector;\n    address verifier;\n    uint256 timestamp;\n  }\n\n  mapping (address => Proof) public proofs;\n\n  event ZkID(string);\n\n  constructor() {\n    emit ZkID(\"Contract deployed\");\n  }\n\n  function addProof (string memory _proof, address _verifier) payable public returns (Proof memory proof) {\n    \n    Proof memory newProof;\n    newProof.vector = _proof;\n    newProof.verifier = _verifier;\n    newProof.timestamp = block.timestamp;\n\n    proofs[msg.sender] = newProof;\n\n    return newProof;\n  }\n\n  function getProof (address _user) public view returns (Proof memory proof){\n    Proof memory _proof = proofs[_user];\n\n    return _proof;\n  }\n  \n}\n",
  "sourcePath": "C:\\Users\\ABC\\Desktop\\zkp-project\\backend\\contracts\\zkID.sol",
  "compiler": {
    "name": "solc",
    "version": "0.8.15+commit.e14f2714.Emscripten.clang"
  },
  "schemaVersion": "3.4.8",
  "updatedAt": "2024-05-03T21:52:48.364Z",
  "networkType": "ethereum",
  "devdoc": {
    "kind": "dev",
    "methods": {},
    "version": 1
  },
  "userdoc": {
    "kind": "user",
    "methods": {},
    "version": 1
  }
}